PS C:\Users\Anmol jain> & "C:/Users/Anmol jain/AppData/Local/Programs/Python/Python312/python.exe" d:/Projects/DeCentrix_btc_tx_analyser/A_to_B_legacy_transaction.py
Wallet DeCentrixStore already exists, loading it...
Address A (Legacy): moR2tMV9QzJEDbtXntZfDkexncqA6xUtiT
Address B (Legacy): n3idxN3RdbBEmkoX6XNsQYJWDQh6AAz8yX
Address C (Legacy): mfeVb6ZW8QYGHKzLdifiLz8Sxq2ETrxwAp
Generated 101 blocks to muqaiW2xKrsyi1aT8SC6Q3hd3VqhyRPJtd
Funded Address A with 1.0 BTC, TXID: 32e4a23ef73aea0b2e08064004502e6fe98c3b8075d7b49b08c7cfe73b784e02
Mined 1 block to confirm funding transaction
Using UTXO: 32e4a23ef73aea0b2e08064004502e6fe98c3b8075d7b49b08c7cfe73b784e02 with amount 1.00000000 BTC

Decoded Raw Transaction:
Transaction ID: 944320cb20fed5711533e338db0d5c7b9a5f46a043739e948eefbe298bc00950
Input TXID: 32e4a23ef73aea0b2e08064004502e6fe98c3b8075d7b49b08c7cfe73b784e02
Output to Address B: n3idxN3RdbBEmkoX6XNsQYJWDQh6AAz8yX
Output to Address B amount: 0.69993000 BTC
Output to Address A: moR2tMV9QzJEDbtXntZfDkexncqA6xUtiT
Output to Address A amount: 0.29997000 BTC

Transaction signed successfully!

Transaction from A to B and back to A broadcasted with TXID: c36f200aaf927ab0eeecaa2795bc287fe2b4aedee20972508c575ea19d8f8b35
Mined 1 block to confirm A to B and back to A transaction

Transaction details saved to Legacy_transaction_details.txt

Transaction from A to B and back to A completed successfully!
PS C:\Users\Anmol jain> & "C:/Users/Anmol jain/AppData/Local/Programs/Python/Python312/python.exe" d:/Projects/DeCentrix_btc_tx_analyser/B_to_C_legacy_transaction.py
Loaded transaction details from file:
TXID A to B: c36f200aaf927ab0eeecaa2795bc287fe2b4aedee20972508c575ea19d8f8b35
Address B: n3idxN3RdbBEmkoX6XNsQYJWDQh6AAz8yX
Address C: mfeVb6ZW8QYGHKzLdifiLz8Sxq2ETrxwAp
Found UTXO from A to B transaction: c36f200aaf927ab0eeecaa2795bc287fe2b4aedee20972508c575ea19d8f8b35 with amount 0.69993000 BTC

Decoded Raw Transaction (before signing):
Transaction ID: d7e69eb4153139fa91a5a6e043515e90b8bfe4f9b3f5db67c6e1317e4cec1d4b
Input TXID: c36f200aaf927ab0eeecaa2795bc287fe2b4aedee20972508c575ea19d8f8b35
Output to Address C: mfeVb6ZW8QYGHKzLdifiLz8Sxq2ETrxwAp
Output to Address C amount: 0.34991500 BTC
Output to Address B: n3idxN3RdbBEmkoX6XNsQYJWDQh6AAz8yX
Output to Address B amount: 0.34991500 BTC

Transaction signed successfully!

Decoded Signed Transaction (after signing):
ScriptSig (Unlocking Script): 47304402204218331004fc22b7577931d31bea269b72d93a12e1e1910bbbd19c39ae99413902206df91614ea23220f677b9c58a5525dd6b8841dc58cae6ef28616b5c291126dff012103b43e080a7fa94c06dde30e2edddc15ef1dc988ed9705c3125c5064d09b36e3ba
ScriptSig ASM: 304402204218331004fc22b7577931d31bea269b72d93a12e1e1910bbbd19c39ae99413902206df91614ea23220f677b9c58a5525dd6b8841dc58cae6ef28616b5c291126dff[ALL] 03b43e080a7fa94c06dde30e2edddc15ef1dc988ed9705c3125c5064d09b36e3ba

Previous Transaction ScriptPubKey (Challenge Script):
ScriptPubKey: 76a914f3887322c62fe309bff0053bbbbee44b0de6f72988ac
ScriptPubKey ASM: OP_DUP OP_HASH160 f3887322c62fe309bff0053bbbbee44b0de6f729 OP_EQUALVERIFY OP_CHECKSIG

Decoded Locking Script (ScriptPubKey):
{'asm': 'OP_DUP OP_HASH160 f3887322c62fe309bff0053bbbbee44b0de6f729 OP_EQUALVERIFY OP_CHECKSIG', 'desc': 'addr(n3idxN3RdbBEmkoX6XNsQYJWDQh6AAz8yX)#trhmjcrc', 'address': 'n3idxN3RdbBEmkoX6XNsQYJWDQh6AAz8yX', 'type': 'pubkeyhash', 'p2sh': '2MvHUQaRkHh4WSHvtSiULHzhwoZr5SmjUzr', 'segwit': {'asm': '0 f3887322c62fe309bff0053bbbbee44b0de6f729', 'desc': 'addr(bcrt1q7wy8xgkx9l3sn0lsq5amh0hyfvx7daefwffeq5)#8lk2v2kj', 'hex': '0014f3887322c62fe309bff0053bbbbee44b0de6f729', 'address': 'bcrt1q7wy8xgkx9l3sn0lsq5amh0hyfvx7daefwffeq5', 'type': 'witness_v0_keyhash', 'p2sh-segwit': '2N26Lt9Xap4T1kGPsHffF9QwhdHuD8bb53j'}}

Decoded Unlocking Script (ScriptSig):
{'asm': '304402204218331004fc22b7577931d31bea269b72d93a12e1e1910bbbd19c39ae99413902206df91614ea23220f677b9c58a5525dd6b8841dc58cae6ef28616b5c291126dff01 03b43e080a7fa94c06dde30e2edddc15ef1dc988ed9705c3125c5064d09b36e3ba', 'desc': 'raw(47304402204218331004fc22b7577931d31bea269b72d93a12e1e1910bbbd19c39ae99413902206df91614ea23220f677b9c58a5525dd6b8841dc58cae6ef28616b5c291126dff012103b43e080a7fa94c06dde30e2edddc15ef1dc988ed9705c3125c5064d09b36e3ba)#gq2x2dfq', 'type': 'nonstandard', 'p2sh': '2N6fefVhKFbnHUPtUpvQjBysuwnrtAGabaY', 'segwit': {'asm': '0 fc9b426bacfc510fc05267b183cea1946899e8f0a7df36a619e6ba96393290f1', 'desc': 'addr(bcrt1qljd5y6avl3gslszjv7cc8n4pj35fn68s5l0ndfseu6afvwfjjrcsz897mu)#njlwrgcy', 'hex': '0020fc9b426bacfc510fc05267b183cea1946899e8f0a7df36a619e6ba96393290f1', 'address': 'bcrt1qljd5y6avl3gslszjv7cc8n4pj35fn68s5l0ndfseu6afvwfjjrcsz897mu', 'type': 'witness_v0_scripthash', 'p2sh-segwit': '2N6QAuZRpTm2XhBbkJTCfTmjP7xFiiJLBf7'}}

Validating ScriptSig against ScriptPubKey...
The locking script is P2PKH, and the unlocking script provides a signature and public key.
This matches the expected structure for a P2PKH transaction.

Transaction size in bytes: 225
Input Transaction Hex (previous): 0200000001024e783be7cfc7089bb4d775803b8ce96f2e50044006082e0bea3af73ea2e432010000006a47304402203f3e24ba2bd70a7ae59cc0dec75b61b70a274a9c8becf8099b1d53962c8db04302200c41b550f76cfdb633d572fbc8b4e8a621a926a68ad8fdab4777214962b333a40121039e378f60ebbb94e20a2e799ca139c83038462d96263c3e2ec52a6a7871568e43fdffffff0228022c04000000001976a914f3887322c62fe309bff0053bbbbee44b0de6f72988acc8b7c901000000001976a91456a257db48f4dfe4c89eb4c8becedca16fb7f72b88ac00000000
Current Transaction Hex (signed): 0200000001358b8f9da15e578c507209e2deaeb4e27f28bc9527aaeceeb07a92af0a206fc3000000006a47304402204218331004fc22b7577931d31bea269b72d93a12e1e1910bbbd19c39ae99413902206df91614ea23220f677b9c58a5525dd6b8841dc58cae6ef28616b5c291126dff012103b43e080a7fa94c06dde30e2edddc15ef1dc988ed9705c3125c5064d09b36e3bafdffffff028ced1502000000001976a914016d08d5e5d51cd3158ada26ae76303e5ced6e9088ac8ced1502000000001976a914f3887322c62fe309bff0053bbbbee44b0de6f72988ac00000000

Transaction from B to C and back to B broadcasted with TXID: 203d22842f5296eacc70e60bbaf22c41e8704965957ce787ff987aa917efebd5
Mined 1 block to confirm B to C and back to B transaction

Transaction from B to C and back to B completed successfully!